:1000000000800020BD0100006D23000039230000A6
:100010003923000039230000392300003923000070
:100020003923000039230000392300006D2300002C
:100030006D23000039230000E5370000353A000049
:10004000FD3F00006D2300006D2300006D230000C4
:100050006D2300006D2300006D2300006D23000060
:100060006D2300006D2300006D2300006D23000050
:100070006D2300006D2300006D2300006D23000040
:100080006D2300006D2300006D2300006D23000030
:100090006D2300006D2300006D2300006D23000020
:1000A0006D2300006D2300006D2300006D23000010
:1000B0006D2300006D2300006D2300006D23000000
:1000C0006D2300006D2300006D2300006D230000F0
:1000D0006D2300006D2300006D2300006D230000E0
:1000E0006D2300006D2300006D2300006D230000D0
:1000F0006D230000251900006D2300000D13000082
:100100006D230000513500006D2300006D230000B9
:100110006D2300006D2300006D2300006D2300009F
:100120006D2300006D2300006D2300006D2300008F
:100130006D2300006D2300006D2300006D2300007F
:100140006D2300006D2300006D2300006D2300006F
:10015000CD360000E1360000F5360000093700001A
:100160006D2300004F2600006D2300006D2300006A
:100170006D2300006D2300006D2300006D2300003F
:100180006D2300006D2300006D2300006D2300002F
:100190006D2300006D2300006D2300006D2300001F
:1001A0006D2300006D2300006D2300006D2300000F
:1001B0006D2300006D230000093E0000564B4CF2F9
:1001C000205210B51A804DF628121A8000BF00BFC9
:1001D00002F0CFF8514B4FF010621A60504A9A600B
:1001E000504ADA60504A136813F4807301BF4F49D4
:1001F0000B604FF4A85313604D4B4E491A7810070B
:1002000042BF1A7842F008021A704B4B2A221A7029
:100210004A4A4B4B8B4204D252F8040F43F8040B6A
:10022000F8E7484B484A0021934202D243F8041BA6
:10023000FAE7464A4648002350F8231042F82310B4
:1002400001336F2BF8D1434B434A802103F8011B44
:100250009342FBD1414B3D4A1A60414B8A221A70AE
:10026000A3F5805324225A70A0221A709A7991071C
:10027000FCD59A79D206FCD43A4A937903F00C0360
:10028000082B384BF9D103221A7140225A719A79FE
:100290009406FCD533498A79324B5006FBD5324A55
:1002A000324911600221516020221A709A7902F0BD
:1002B0000C020C2AFAD12E4B2E4A1A602E4B2F4AD2
:1002C0001A6000225A60072243F8042C2C4AC3F813
:1002D0000C2D62B601F093FF144B1B68DA0705D5AD
:1002E000284801F08FFC284B284A1A60284B1B78BD
:1002F0005B0609D5244C254B22689A4204D121483B
:1003000001F080FC0023236005F010FA02F038F8B9
:1003100003F0F2FEFEE700BF0E20054030800440EF
:10032000823F04000100002B10D0034014D0034092
:1003300002D007400C8AFF1F00E00740A490000095
:100340001C87FF1F0C8AFF1FF4E4FF1F0082FF1FA2
:100350000000000000E400E05FE400E008ED00E0E1
:100360000050064000400640448004400000030165
:1003700004800440C010050014E000E0FF76010096
:1003800000002020000000001CE00340A5C3945A98
:1003900000F00740FFFFFFFFFFFFFFFFFFFFFFFF32
:1003A000FFFFFFFFFFFFFFFFFFFFFFFFFFFFFFFF5D
:1003B000FFFFFFFFFFFFFFFFFFFFFFFFFFFFFFFF4D
:1003C000FFFFFFFFFFFFFFFFFFFFFFFFFFFFFFFF3D
:1003D000FFFFFFFFFFFFFFFFFFFFFFFFFFFFFFFF2D
:1003E000FFFFFFFFFFFFFFFFFFFFFFFFFFFFFFFF1D
:1003F000FFFFFFFFFFFFFFFFFFFFFFFFFFFFFFFF0D
:10040000FFFFFFFFFFFFFFFFFFFFFFFFDEF9FFFF23
:1004100010B5054C237833B9044B13B10448AFF33E
:1004200000800123237010BD0C8AFF1F0000000014
:10043000A8900000084B10B51BB108490848AFF35D
:1004400000800848036803B910BD074B002BFBD0A0
:10045000BDE81040184700BF00000000108AFF1FD1
:10046000A89000000C8AFF1F0000000010B5104C7F
:1004700023686BB1206843885A1C03441C7A0388A4
:100480009A4212D301F044FB094B00221A600DE09E
:10049000084B1B7813B94FF0FF3010BD032001F05B
:1004A000BFFF20600028E5D1F5E74280204610BD5F
:1004B000288AFF1F888BFF1F10B50B4C236813B1D0
:1004C00022686AB902E0094B1B7813B94FF0FF307C
:1004D00010BD032001F0A4FF20600028F0D1F5E753
:1004E00053881344187A10BD288AFF1F888BFF1F7A
:1004F000044B9888044B1A681AB1138852889B1AC7
:1005000018447047E8E4FF1F288AFF1F2DE9F84FC1
:10051000DFF87890DFF878B080460E460027CA46AC
:1005200086B39BF800306BB3D9F8003053B9032081
:1005300001F076FFCAF8000020B3038813B901F078
:10054000E7FAF4E7DAF800502B46698833F8084BED
:10055000641AB44228BF344622461944404605F086
:1005600013F96B88A0442744361B1C442B88A4B283
:10057000A3426C80D4D8284601F0CAFA0023C9F8F7
:100580000030CDE73846BDE8F88F00BF288AFF1F4E
:10059000888BFF1F10B5094B1B786BB1084C206886
:1005A00018B101F0B5FA00232360032001F038FFF1
:1005B00010B101F0ADFAF8E710BD00BF888BFF1F46
:1005C000288AFF1F2DE9F0472B4C2C4F0123814631
:1005D0000D4623710E46A046002E49D0A36813BBDA
:1005E0004AF2F92A3B7803F0FF020BB9227113E0BB
:1005F000042001F04BFF072807D80123237101F0E5
:1006000069FAA06078B988F80400BAF1010A01D04B
:10061000237B2BB1012323734FF0FF30BDE8F0871C
:1006200003F022FADEE7A168002323734B88C3F1AD
:100630004002B24228BF324698180B444880B61A8E
:10064000073309EB020AD14504D019F8012B03F84E
:10065000012FF8E74B883F2B06D940230B8004205D
:1006600001F094FF0023A36005236373D146B3E731
:1006700026712846BDE8F087288AFF1F888BFF1F58
:1006800007B502AB012103F8010D1846FFF79AFFE9
:1006900003B05DF804FB10B50D4C01232371A36872
:1006A0007BB90C4B1B7813B90020207110BD0420BE
:1006B00001F0ECFE0728F7D801F00CFAA060002842
:1006C000F2D0A368588800232371C0F1400010BD08
:1006D000288AFF1F888BFF1F70B50F4B1B78D3B183
:1006E0000E4CA568012626714DB100266B886673F5
:1006F00029462B80042001F049FFA66009E001F0A3
:10070000E9F9014620B10420657301F03FFF00E0E4
:1007100066730023237170BD888BFF1F288AFF1F1B
:1007200038B50D4C237903F0FF059BB9A16831B1B1
:100730004B880B80042001F029FFA56038BD01F033
:10074000C9F9014620B10420BDE8384001F01EBFC0
:100750000123637338BD00BF288AFF1F30B50346ED
:100760000020B3FBF2F402FB1433092B94BF3033A7
:100770003733DBB20B5423460CB10130F1E70A18D2
:1007800023465470C41AA34206DACC5C1578CD54C3
:1007900002F801490133F5E7084630BD031E10B5E4
:1007A0000C4603DBBDE81040FFF7D8BF2D2001F851
:1007B000010B5842FFF7D2FF204610BD2DE9F04350
:1007C00081EAE17985B00F46A9EBE1790146064659
:1007D00015461C4604F044FF78B30021304604F06F
:1007E00017FF002814BF042003204845B4BFC0EB06
:1007F00009050025002F07DA60192023844202D062
:1008000004F8013BFAE7002530464FF07E5363F3CE
:100810001E00002104F0FCFE10B12D2323700134D2
:1008200041234E226370E31C2270A27058192022CB
:1008300083423CD003F8012BFAE726F000487749C1
:10084000404604F00DFFA8BB4046744904F0EAFEA0
:10085000804678BB0021304604F0DAFE002814BF41
:10086000042003204845B4BFC0EB09054546002FCE
:1008700007DA60192023844202D004F8013BFAE72A
:1008800000250021304604F0C3FE10B12D23237053
:100890000134492323704E2346226370E31CA27067
:1008A00058192022834202D003F8012BFAE70023D3
:1008B0000370B0E002AB01AA2946304604F023FFE2
:1008C000814665B9019B53B990F80090544B554A45
:1008D000B9F1340F94BF9146994601230193019BCE
:1008E0005B429D42BCBFDFF83C916B424846B8BFBB
:1008F000019305F019F8019B98428046C8BF00F1AA
:100900000108002B02D108F1010825E024DA1DB30B
:100910002B44984205F102081ED9A946B9F1000FEF
:1009200007DD3046404904F0D5FC09F1FF390646A1
:10093000F4E7002DACBF691B294602AB03AA304681
:1009400004F0E1FE019B039A691CD21A8A4208BF97
:100950000133814608BF0193029808B108F10108EC
:10096000C8EB0703002B04EB080208DD1A442146FC
:1009700023442026994203D001F8016BFAE723466D
:1009800010B12D21197001330199002909D135B118
:100990001946302001F8020B2E2058700B462E25E8
:1009A00022E0FCDA002DFAD01D46302005F8020BBB
:1009B0002E265E702B46C91A00255E1803D503F853
:1009C000010B0125F9E7002DE9D00196E7E7581C56
:1009D00019F8011B1970824209D00199013901915E
:1009E00009B9981C5D7003469A42F0D800E013469E
:1009F000002F0DDA47447F42194620207A1A1A4404
:100A0000002A02DD01F8010BF8E7002FA8BFDB196F
:100A100000221A70204605B0BDE8F083FFFF7F7FFB
:100A2000866C0000846C000000002041F0B5374A5D
:100A3000374B11680906FCD4196811F08001F8D110
:100A400072B634480378002B5DD0334B334A1F68AD
:100A500004330C321B6852F80C6C52F8085C52F8E4
:100A6000044C12683B4433442B4423441344C3F3E3
:100A70004E032B4A43F4004313602A4B1F68043390
:100A800040321B6852F80C6C52F8085C52F8044C67
:100A900012683B4433442B4423441344C3F34E03B2
:100AA000214A43F400431360204B02F500221F68E3
:100AB000043310321B681668556894683B440C3246
:100AC000334412682B4423441344C3F34E03184A9F
:100AD00043F400431360174B1F68043340321B6814
:100AE00052F80C6C52F8085C52F8044C12683B4403
:100AF00033442B4423441344C3F34E030E4A43F4BC
:100B000000431360017062B6F0BD00BF24B0034023
:100B100024B00B40378AFF1F38B0034040B0034079
:100B20002CB0034058B0034030B0034038B00B4005
:100B30002CB00B4058B00B4030B00B4030B5214BBF
:100B4000214D2248224960221A70E1225A702C78E5
:100B5000204A03F58E23082C03F10C0301D1012454
:100B600002E00A2C03D139240460132005E00C2C88
:100B70000CBF35243D240460122008601460164A1E
:100B80001860537815491046154A03B101230B60CC
:100B900013606978134A144B012901D880210BE0B6
:100BA000042901D8842107E0082901D8852103E020
:100BB000102994BF862187211160196001230370D9
:100BC00030BD00BF004007400088FF1F08B0034051
:100BD0000CB0034008B00B40378AFF1F20B0034021
:100BE00020B00B4024B0034024B00B400D4B5A788A
:100BF00058B1AAB9012159701B7823B10A4B1A6068
:100C000003F500231A60FFF799BF4AB158701B78AB
:100C1000002BF8D0044B186003F500231860F2E7AE
:100C2000704700BF378AFF1F24B003400C2810B460
:100C300004D9102828BF1020102307E00A2804D860
:100C400008288CBF0A23082300E00C23DCB20A4AE0
:100C50000A49201A9070087883420BD013780C70E0
:100C60002BB1074A0023136002F50022136010BC69
:100C7000FFF764BF10BC7047378AFF1F0088FF1F53
:100C800024B0034010B5144B1B7804460BB1FFF79A
:100C9000CDFE012C114A02D80023136018E0042C69
:100CA0000F4903D8042313600B6011E0082C04D80B
:100CB000052313600B6008230AE0102C95BF062360
:100CC00007231360136095BF0B600B601023202374
:100CD000044A537010BD00BF378AFF1F24B0034081
:100CE00024B00B400088FF1F28282DE9F0414CD884
:100CF000274B1D5CFF2D48D0264C23780BB1FFF706
:100D000095FE290615D472B6234E01273560E7708B
:100D100062B672B633681A0604D5204B00221B68EF
:100D2000E27025E0E378002BF0D062B602F09CFE82
:100D3000EFE772B61A4EDFF8708005F04007FFB299
:100D400005F03F05336817B123F0100301E043F0CD
:100D5000100333600123C8F80050237162B672B6E5
:100D6000D8F800301B0609D50E4B00221B682271F3
:100D700062B6A07843FA00F0BDE8F0812379002B39
:100D8000E0D062B602F070FEE9E70020BDE8F08135
:100D9000886C0000378AFF1F00B0034010B003408A
:100DA0000CB00B4010B00B4000B00B40094A136868
:100DB00043F480531360084B5A78084B0AB18022E1
:100DC00000E0C0221A70064B80F30C0000B21880BD
:100DD000704700BF2C800440378AFF1F21C00C40A1
:100DE00000C00C40224A136843F400631360214B97
:100DF00000221A705A709A70DA701A711E4B1A78A3
:100E0000092A05D01A2A07D140F213311B4A02E001
:100E10001B4A40F2133111605B780A2B05D01F2B5F
:100E200007D14FF45172174B02E0174B4FF4517238
:100E30001A601F28154B98BF2020C0F344321A7047
:100E4000C0F347125A7000F01F000422022198726A
:100E50009A70D9745A7588221A743C22DA700C4B35
:100E600040221A70A3F22B334FF400421A607047ED
:100E7000348004403C8AFF1F0288FF1F04D00440D6
:100E80000CB0044000D0044010B0044000B0064054
:100E90002FE400E0134B9A7802F0EC0100F003021B
:100EA0000A43410748BF42F010029A700D4900F012
:100EB0000F02042A02BF8A7942F040028A715A79ED
:100EC000C30602F0EF02074B48BF42F010025A710E
:100ED0009A79810602F0EF0248BF42F010029A713F
:100EE000704700BF00B006401E4B1B681B0510B5C5
:100EF00000D410BD1C4C23791B4A03F0FF0113B131
:100F000002F0B2FDF7E7194B4FF400401860184BA0
:100F1000D970184B1978092905D01A2907D140F240
:100F20000310154902E0154940F2031008605B7890
:100F300003F07F030A2B05D01F2B07D140F20311CA
:100F40000F4B02E00F4B40F203111960084B197967
:100F5000DB7900231370537093680BB101221A7070
:100F600010BD00BF348004403C8AFF1F84E100E0D4
:100F700000B006400288FF1F04D004400CB00440BB
:100F800000D0044010B004400A4A38B50446137932
:100F900003F0FF05002BFAD10121204600F02CFFC1
:100FA0002946204600F0EEFE034B53F83420014B57
:100FB000DA6038BD3C8AFF1F0C6D000010B509B126
:100FC00040F08000144A53789842144622D0134AC5
:100FD000126812051DD503F07F030A2B04D01F2BC6
:100FE00005D100220E4B01E00E4B00221A600029B1
:100FF00000F07F0214BF602344230A2A05D01F2A71
:1010000007D143F44073064A02E0064A43F44073B2
:101010001360607010BD00BF0288FF1F3480044061
:1010200000D0044010B004400F4B1A7882421AD00E
:101030000E490968090515D5092A04D01A2A05D1CF
:1010400000210B4A01E00B4A00211160092805D05C
:101050001A2807D140F21331054A02E0054A40F24E
:1010600013311160187070470288FF1F34800440EC
:1010700004D004400CB0044038B50D4B1B6813F489
:1010800000634FF0000410D021280A4D0AD80A4B03
:10109000012153F83030AB6000F0AEFEAB681C703D
:1010A000012038BDAC60204638BD184638BD00BFB1
:1010B000348004403C8AFF1F0C6D00000B4B1B6802
:1010C00013F4006310D01728094B09D1094A40F2E4
:1010D000023111605A7B42F001025A7301207047BD
:1010E0005A7B02F0FE025A7300207047348004409D
:1010F00000B0064008B004401E4B1B681A052DE9DD
:10110000F041064633D51C4DEB680BB101221A7035
:10111000AC78DFF86480194F0134282C28BF0024F4
:10112000EA78154B944218D101F05CF940280FDCA5
:101130003B791B06F4D598F803300133282B28BFE0
:101140000023EA18DBB2127CD2B2FA71EB70E7E747
:10115000FF28E5DD02F088FCE2E71A19F6B2167402
:10116000E4B201221A719C70044BBC22DA70BDE813
:10117000F08100BF348004403C8AFF1F00B006406D
:10118000234B1B681A052DE9F0413ED5214CE3683D
:101190000BB101221A70DFF8808006464718BE4264
:1011A00030D2A578E3780135282D28BF00259D424F
:1011B00008D0631916F8012B1A74EDB201232371BC
:1011C000A570ECE7BC2388F8033001F00BF9402848
:1011D00010DC98F804301B0610D5E3780133282B77
:1011E00028BF0023E218DBB2127CD2B288F80720B5
:1011F000E37003E0FF2801DD02F036FCE3789D4256
:10120000E3D0D6E7044BBC22DA70BDE8F08100BF22
:10121000348004403C8AFF1F00B0064010B5034CE8
:10122000237913B102F020FCFAE710BD3C8AFF1FBE
:10123000054B9878DA78C0B2D3B298422CBF2733E6
:1012400003F1FF33181A70473C8AFF1F044B1878CC
:101250005A78C0B2D3B2984238BF4030C01A7047F3
:101260003C8AFF1F10B50F4C23786278D9B2D2B2F6
:10127000914214D0531C402B28BF0023E21892F84F
:101280003800DAB26270A268C0B252B18B4288BF35
:101290004031CB1A1A2B04DC0023137010BD4FF021
:1012A000FF3010BD3C8AFF1F084A11785378DBB22B
:1012B000994208D00133402B28BF0023134493F8F0
:1012C0003800C0B270474FF0FF3070473C8AFF1FB4
:1012D0000B4B1B681B0512D50A4BDA7802F0CB02C8
:1012E000DA7040225A74DA7842F03402DA70064B2F
:1012F0005A78D2B21A709B680BB100221A707047EC
:101300003480044000B006403C8AFF1F70B533486B
:10131000037913F0300F2ED072B6837D03F0FF05F2
:1013200023B9C3794023437462B624E062B62C49E2
:101330000B784A78DBB2D2B25C1C402C28BF002468
:101340009442C67918BF0B19F6B21CBF83F83860F7
:1013500023466C1E14F0FF05EED1D8B208708968E0
:1013600049B1934236BFC2F140029B1A9B18272B0A
:10137000C4BF01230B70194AD078C0B206061DD530
:1013800013791D061AD516498D78CB78EDB2DBB2EC
:10139000AB420BD00133282B28BF00231479CC1883
:1013A000247CE4B2D471147D072CF1D9DBB2CB706C
:1013B0000A4B1A79140644BF7C22DA7041060BD519
:1013C000064B1A79520607D5054A00211171D268D9
:1013D00002B111703C22DA7070BD00BF00B006404F
:1013E0003C8AFF1F224A136843F480631360214B39
:1013F00000221A705A709A70DA701A715B792BB1E8
:10140000152B07D140F213321B4B02E01B4B40F26D
:1014100013321A601A4B1B78012B05D0052B07D10C
:101420004FF45172174B02E0174B4FF451721A6090
:101430001F28164B98BF2020C0F344321A70C0F307
:1014400047125A700221042200F01F0098729A700D
:10145000D9745A7588221A743C22DA700C4B4022D7
:101460006FF44A711A700B444FF400521A607047BF
:1014700034800440B48AFF1F18C0044040A00440D8
:101480000488FF1F1CC0044044A0044000A0064084
:101490002DE400E0134B9A7802F0EC0100F0030217
:1014A0000A43410748BF42F010029A700D4900F00C
:1014B0000F02042A02BF8A7942F040028A715A79E7
:1014C000C30602F0EF02074B48BF42F010025A7108
:1014D0009A79810602F0EF0248BF42F010029A7139
:1014E000704700BF00A006401D4B1B685B0510B590
:1014F00000D410BD1B4C22791A4B02F0FF0112B12F
:1015000002F0B2FAF7E7184A4FF400501060174A99
:10151000D1705A792AB1152A07D140F20311144A21
:1015200002E0144A40F203111160134A127802F0EB
:101530007F02012A05D0052A07D140F203110F4A84
:1015400002E00F4A40F203111160084A1179D27982
:1015500000221A705A709B680BB101221A7010BDDC
:1015600034800440B48AFF1F84E100E000A00640FC
:1015700018C0044040A004400488FF1F1CC0044061
:1015800044A004400A4A38B50446137903F0FF0525
:10159000002BFAD10121204600F02EFC29462046DE
:1015A00000F0F0FB034B53F83420014BDA6038BDF8
:1015B000B48AFF1F0C6D000010B509B140F0800027
:1015C000144A13789842144622D0134A12685205DE
:1015D0001DD503F07F03012B04D0052B05D100227C
:1015E0000E4B01E00E4B00221A60002900F07F0232
:1015F00014BF60234423012A05D0052A07D143F4F0
:101600004073064A02E0064A43F4407313602070B8
:1016100010BD00BF0488FF1F348004401CC004407C
:1016200044A004400E4B5A79824218D00D490968F3
:10163000490513D52AB1152A05D10B4A002111609D
:1016400001E00A490A6028B1152807D140F2133198
:10165000054A02E0054A40F21331116058717047A3
:10166000B48AFF1F3480044018C0044040A00440E6
:1016700038B50D4B1B6813F480634FF0000410D095
:1016800021280A4D0AD80A4B012153F83030AB60AB
:1016900000F0B2FBAB681C70012038BDAC60204686
:1016A00038BD184638BD00BF34800440B48AFF1FDF
:1016B0000C6D00000E4B1B6813F4806316D01228CB
:1016C0000C4B03D140F202310B4A04E0142809D13B
:1016D0000A4A40F2023111605A7B42F001025A7309
:1016E000012070475A7B02F0FE025A7300207047B7
:1016F0003480044000A006400CA0044014C0044004
:101700001E4B1B685A052DE9F041064633D51C4D8A
:10171000EB680BB101221A70AC78DFF86480194FC6
:101720000134402C28BF0024EA78154BA24218D17E
:1017300000F058FE40280FDC3B791B06F4D598F8E2
:1017400003300133402B28BF0023EA18DBB2127CA0
:10175000D2B2FA71EB70E7E7FF28E5DD02F084F919
:10176000E2E71A19F6B21674E4B201221A719C70FB
:10177000044BBC22DA70BDE8F08100BF3480044025
:10178000B48AFF1F00A0064000F00F00092894BF94
:1017900030303730FFF7B4BF234B1B685A052DE9B3
:1017A000F0413ED5214CE3680BB101221A70DFF8FD
:1017B000808006464718BE4230D2A578E3780135CE
:1017C000402D28BF00259D4208D0631916F8012B33
:1017D0001A74EDB201232371A570ECE7BC2388F8DD
:1017E000033000F0FFFD402810DC98F804301B06A1
:1017F00010D5E3780133402B28BF0023E218DBB279
:10180000127CD2B288F80720E37003E0FF2801DDE4
:1018100002F02AF9E3789D42E3D0D6E7044BBC22DC
:10182000DA70BDE8F08100BF34800440B48AFF1F45
:1018300000A0064010B5034C237913B102F014F94F
:10184000FAE710BDB48AFF1F054B9878DA78C0B26A
:10185000D3B298422CBF3F3303F1FF33181A7047BD
:10186000B48AFF1F044B18785A78C0B2D3B298429A
:1018700038BF4030C01A7047B48AFF1F10B50F4CF4
:1018800023786278D9B2D2B2914214D0531C402B43
:1018900028BF0023E21892F85000DAB26270A26802
:1018A000C0B252B18B4288BF4031CB1A1A2B04DC34
:1018B0000023137010BD4FF0FF3010BDB48AFF1F1E
:1018C000084A11785378DBB2994208D00133402B93
:1018D00028BF0023134493F85000C0B270474FF064
:1018E000FF307047B48AFF1F0B4B1B685B0512D596
:1018F0000A4BDA7802F0CB02DA7040225A74DA78B6
:1019000042F03402DA70064B5A78D2B21A709B68F1
:101910000BB100221A7070473480044000A00640CA
:10192000B48AFF1F70B53348037913F0300F2ED0FF
:1019300072B6837D03F0FF0523B9C3794023437456
:1019400062B624E062B62C490B784A78DBB2D2B298
:101950005C1C402C28BF00249442C67918BF0B1988
:10196000F6B21CBF83F8506023466C1E14F0FF05CE
:10197000EED1D8B20870896849B1934236BFC2F13E
:1019800040029B1A9B18272BC4BF01230B70194AD6
:10199000D078C0B206061DD513791D061AD5164992
:1019A0008D78CB78EDB2DBB2AB420BD00133402B5C
:1019B00028BF00231479CC18247CE4B2D471147DA0
:1019C000072CF1D9DBB2CB700A4B1A79140644BF4D
:1019D0007C22DA7041060BD5064B1A79520607D5E0
:1019E000054A00211171D26802B111703C22DA70EF
:1019F00070BD00BF00A00640B48AFF1F38B5451E69
:101A000015F8014F44B10A2C02D10D20FFF778FEE2
:101A10002046FFF775FEF3E738BD10B50446000910
:101A2000FFF7B2FE2046BDE81040ADE610B5044613
:101A3000000AFFF7F2FF2046BDE81040FFF7EDBFB8
:101A400010B50446000EFFF7E8FF200CFFF7E5FF96
:101A5000200AFFF7E2FF2046BDE81040FFF7DDBF98
:101A60001FB572B6154B70221A70154A41211170BC
:101A70000F2102F8011C80221A701A781206FCD578
:101A8000104B186862B6104B984298BF0A2301ACFD
:101A900098BF58430A222146FEF760FE0B4A0023F6
:101AA000E15C21B101330A2B22F8021BF8D1084A6C
:101AB00001335B00137004B010BD00BF0000024092
:101AC00007000240080002407F9698000888FF1F28
:101AD0000688FF1F10B572B60B480268B2FA82F191
:101AE0000B2902DD62B6002010BD4FF00043CB4051
:101AF00022EA0302026062B6044C48234B43E0181A
:101B00000022E250426010BDA488FF1FBC83FF1F6B
:101B10000C4B4822C31AB3FBF2F30B2B11D80A4A21
:101B2000127822B1094A12780AB100F0C5BC72B627
:101B300007494FF0004222FA03F30A681A430A6089
:101B400062B67047BC83FF1F688BFF1F888BFF1F27
:101B5000A488FF1F704700F14040A0F592237C2B22
:101B600012D9A0F594237C2B10D9A0F596237C2BB9
:101B70000ED9A0F598237C2B0CD9A0F59A207C28AF
:101B8000054888BF002070470448704704487047E4
:101B90000448704704487047A888FF1F5089FF1FFA
:101BA0000089FF1FD088FF1FB088FF1F1030024B35
:101BB00043F82010704700BF0082FF1F08B50C4B90
:101BC00003EBC00042681046FFF7C5FF70B172B664
:101BD000136823F0877323F4803343F0807313601A
:101BE000C2F38402034B40F8223062B608BD00BF46
:101BF0000C6D0000551B0000014B1868704700BFBA
:101C000000D00340044B054900221A600A60044AD0
:101C1000106010221A60704714D0034004D00340B3
:101C200000D0034000280EDB03024FF48072B3F5AE
:101C3000004F06D3013A012AA3EB000101D00B4665
:101C4000F5E71B0A10E043421B024FF48072B3F524
:101C5000014F06D3013A012A00EB030101D00B46E4
:101C6000F5E71B0AC3F58073013A43EA0223014AF0
:101C7000136070470CD0034020B11028034628BFE2
:101C8000102300E00123034A92F8E00082F8E030DC
:101C9000704700BFA888FF1F2DE9F0418846054620
:101CA0002C492D4E404603F0B3FC47F61223002882
:101CB00016BF022701271E46002426FA04F003F06F
:101CC000B1FA4FF05E5103F005FB0146404603F0C8
:101CD000B3FC10B90134072CEFD126FA04F003F05D
:101CE000A1FA414603F0AAFB4FF07C5103F0E8F95A
:101CF00003F0CCFC4FF6FF73984228BF1846EB1E4A
:101D0000012B06D8154B164900221A600A60154AA5
:101D100018E0172D0CD8144BEB4003F0010383F0AF
:101D200001023BB1114B12491A600A60114A09E0E5
:101D3000202D01D0192D0BD10F4B104900221A6014
:101D40000A600F4A106044EAC7041C60BDE8F081D5
:101D5000BDE8F081001BB740006CDC02009003403E
:101D600004900340089003406006F00000800340A8
:101D7000048003400880034000800B4004800B4037
:101D800008800B40212810B518D80D4B53F830208F
:101D900092F880423CB1012311B182F8803010BD2D
:101DA00082F8003110BD03EBC0035B681A6811B103
:101DB00042F0030201E022F002021A6010BD00BFEF
:101DC0000C6D000021289FBF034B53F830300122D7
:101DD00083F88021704700BF0C6D000021289FBF51
:101DE000044B53F8303093F80002C0B288BF002093
:101DF000704700BF0C6D0000212810B52BD8164A83
:101E000002EBC00301295B68144601D004290FD1FD
:101E100054F83020012082F880024FF4A2721A6038
:101E20001A6804290CBF42F0200222F0200211E0BF
:101E300052F83000002280F8802211B94FF48072ED
:101E400008E0022902D140F2031203E0032908BF8F
:101E50004FF481721A6010BD0C6D0000212870B51E
:101E60000E463CD8042A3AD8DFE802F007090503F9
:101E70000B00092306E00A2304E0082302E00C23F8
:101E800000E00B231D04164B03EBC0035C682168C4
:101E900011F4E06101D1FFF7AFFF124B124AC3F812
:101EA0009C21124AC3F8A021114AC3F8A421114A67
:101EB000C3F8A8212046104AC3F8AC21FFF74BFE17
:101EC00068B172B6226822F47022226042F08073F8
:101ED000C4F384022B4340F82260236062B670BDD5
:101EE0000C6D00000082FF1FCD87FF1FA187FF1F21
:101EF0007587FF1F4987FF1F1D87FF1F282838B5DB
:101F000004464E4B10D193F8E0300B2B03D8C3F1AD
:101F10000C03994003E00C2B1CBF0C3B19410846F5
:101F2000BDE83840FEF742BF93F8E02001250029C4
:101F300005FA02F301DC002102E08B4204D82946B5
:101F4000FFF720FF294674E00338C3B2012B01D804
:101F50003B4B06E0202C01D0192C01D1394B00E07D
:101F6000394B1B6803FB0113D3401D2859D8DFE808
:101F700000F03F45392758581B2158585858585891
:101F80005858582D330F1558515858585858584BC1
:101F90002E4A136040F244422D4B40E02D4A13601C
:101FA00040F244422C4B3AE02C4A136040F2444247
:101FB0002B4B34E02B4A136040F244422A4B2EE074
:101FC0002A4A136040F24442294B28E0294A136010
:101FD00040F24442284B22E0284A136040F2444237
:101FE000274B1CE0274A136040F24442264B16E080
:101FF000264A13604FF45172254B10E0254A1360B6
:102000004FF45172244B0AE0244A13604FF451728A
:10201000234B04E0234A1360234B4FF451721A60A0
:1020200038BD7F29D4BF002101212046FFF7AAFE39
:1020300001212046BDE83840FFF7DEBEA888FF1F1B
:102040000890034008800B40088003401080034044
:1020500004B004401880034008B0044020800340CE
:102060000CB004402880034010B00440308003408E
:1020700010C004403880034014C004404080034036
:1020800018C00440488003401CC004401090034026
:1020900030900440189003403490044010800B406E
:1020A00048A0044018800B404CA004402DE9F041AA
:1020B00007460E4690460825012408EA04013846E2
:1020C000FFF760FE01213046FFF75CFE002130463D
:1020D000FFF758FE6400013DE4B2EED1BDE8F081A7
:1020E0002DE9F04107460E4690460824802508EA6F
:1020F00005013846FFF746FE01213046FFF742FE54
:1021000000213046FFF73EFE013C4FEA5505EED177
:10211000BDE8F08112B91A46FFF7C8BF1A46FFF7AB
:10212000DFBF2DE9F04180460F4608260025012437
:1021300038460121FFF726FE4046FFF74FFE00B16B
:10214000254300213846FFF71DFE6400013EE4B23E
:10215000EED12846BDE8F0812DE9F04180460F46DA
:1021600008250024802638460121FFF70BFE404653
:10217000FFF734FE00B1344300213846FFF702FE7A
:10218000013D4FEA5606EED12046BDE8F0810AB97E
:10219000FFF7C7BFFFF7E0BF72B60B4B0B4A0C4906
:1021A0001B681268096862B6490102D5322B88BFE4
:1021B0000132C3F5BB336020FF33B3FBF0F34FF4C0
:1021C0007A7000FB0230704718E000E0448BFF1F7C
:1021D00004ED00E038B50446FFF7DEFF054624B9FC
:1021E00038BD013C0AD005F57A75FFF7D5FF401BD5
:1021F000B0F57A7FF5D201F037FCF6E738BD224B17
:102200004FF4000210B51A604FF080721A604FF060
:1022100000721A604FF080621A604FF000621A601C
:102220001A4B1B4A1B4C00204BF6FF71186059607B
:1022300028231360936013619361136293621363A5
:1022400093630922226004F58054043420606160A5
:10225000A360236144F8042C04F5FE2420600E489A
:1022600001600E490B608B600D4B1A60FEF766FC37
:102270001920FFF7AFFF00F047FF40F21310BDE851
:102280001040FFF7A7BF00BF08E100E00480034053
:102290000C8003400080034008800B400C800B4002
:1022A00000800B4070B50E2406464C4333782BB1AA
:1022B000013CFBD1002070BD013CFBD03378002BEA
:1022C000FAD0FFF769FF0546337813B1013CFBD123
:1022D000F0E7FFF761FF401B70BD70B50E240646A6
:1022E0004C4333782BB9013CFBD1002070BD013C3D
:1022F000FBD03378002BFAD1FFF74EFF0546337839
:1023000013B9013CFBD1F0E7FFF746FF401B70BD5E
:1023100021280DD8074B53F8300021B1114600F5A4
:102320000070FFF7BFBF114600F50070FFF7D5BF83
:10233000002070470C6D000008B50B4D2C462B6833
:10234000580301D500F083F92368590501D5FFF73B
:10235000E9FA23681A0501D5FEF7D8FF2368DB04E4
:10236000EDD501F0F5F8EAE73480044008B5FFF751
:10237000E3FF024B10221A80704700BF0020054087
:1023800070470A4908B50B6868B16A461844A2F557
:102390008052904206D303F0C3F90C2303604FF040
:1023A000FF3008BD0860184608BD00BF8C89FF1FBC
:1023B000002070474FF0FF3070474FF400534B60E0
:1023C00000207047012070474FF0FF307047FEE754
:1023D000FEE70078B0FA80F04009704701230370EF
:1023E0007047FEE7EFF31380A8B9EFF31082A2B9AC
:1023F000EFF3058323B10F2B05D9084A985C03E05E
:102400004FF4807000E01046EFF311832BB1984237
:1024100028BF184670474FF0FF307047F0E300E0E8
:10242000431E032B14D872B60A4951F8230068B131
:1024300070B4094C058834F81320466841F82360CD
:10244000521B24F8132062B670BC704762B6704706
:1024500000207047488BFF1FE8E4FF1F0138032866
:102460000DD8094B03EB8000036972B64BB1002015
:102470001A885B681044002BFAD162B670470020BE
:1024800070471846F9E700BF488BFF1F0138032843
:102490000CD872B6074B03EB8000036943B10020F0
:1024A0005B680130002BFBD162B67047002070479B
:1024B0001846F9E7488BFF1F30B472B62E4A1378DE
:1024C0001D0706D52D4B196A00293AD0996A0029B3
:1024D00047D053781C0706D5284B196C002944D0E7
:1024E000996C00293FD09378190705D5234B196EB5
:1024F00000293CD0996E99B1D3781B0708D51F4BA2
:10250000D3F88020002A34D0D3F88820112142B19A
:1025100062B61B4B002283F8202030BCFFF7F8BACC
:102520000D21174C174D94F8202043F8315003EB40
:10253000C1030830013A586084F8202062B630BCEC
:10254000704704220E4C104D94F8201043F832507E
:1025500003EBC20308304A1E586084F8202062B69C
:10256000EDE70521DDE70921DBE70822EAE70C2298
:10257000E8E71022E6E700BFB46C00000080FF1F10
:10258000488BFF1FC800400088004000431E032BFB
:1025900021D81B4A400140F0100070B4104472B6BC
:1025A000184CE21892F82420032A1DD8DFE802F024
:1025B0000214171903250E8810F0080F234414BFC6
:1025C000C822882242EA0642083183F82450026079
:1025D000416062B670BC704708300225EBE7052504
:1025E000E9E708300425E6E79A00A318186928B13E
:1025F0009B6A5960A318996262B6EBE71961F9E723
:102600000080FF1F488BFF1F431E032B17D830B4D9
:1026100040010C4C40F01000204472B60A4CE51802
:1026200095F8245065B1083000252344120442F087
:102630008002026083F82450416062B630BC70476B
:102640000125F2E70080FF1F488BFF1F00BE2DE928
:10265000F04FAE4DAE4F85B047E0AE4E4FEA930916
:1026600006EBC90B013ADBF8041003F008035FFA2C
:1026700082FAA1F1080003F0FF02002B40F00D8167
:1026800056F839301B0C1FFA83FE21F808EC002B9A
:1026900000F0FA80A04C21F8062C54F82A3041F8BA
:1026A000042C002B00F06C814FEA8A03E118496D7D
:1026B0004860DFF8808238F81A101C448E44606548
:1026C00028F81AE0FFF706FA002800F04F81934A35
:1026D000934B1BF0080F00F1080018BF1346CBF80E
:1026E000040046F8393008232B702C78E4B26107D7
:1026F0001CD5894B93F84020B2B193F8411001F0FA
:10270000FF0231B1013AD2B283F84120002A00F031
:10271000E88484490A7802F0FF032AB1013BDBB266
:102720000B70002B00F01F8104232B7004F00803B2
:1027300003F0FF02002B00F0FF803B78DBB21A09A8
:102740008BD19B08734E56F8332006EBC301C2F3BE
:102750008302013A49680C2A00F28680DFE802F021
:1027600088888484848484844684848407000868F8
:10277000694C4A68A264606482B240F281600021C0
:10278000DFF898C146F833C04FF0010E8242E16491
:102790003161B16184F850E05E4B00F2F680B2F531
:1027A000D06F80F07F83B2F5817F00F0688300F204
:1027B0008A82802A00F0F882822A40F02D83B4F8C1
:1027C000483003F07F03042B00F22683564A84F836
:1027D00038109B001A4484F8391013789B0740F195
:1027E0007D832146022301F838EFE4E24A4CE36C92
:1027F0006BB3B4F8662094F8500094F86410402A43
:10280000964641F0020C28BF4FF0400E002880F0A1
:102810000100CEEB02020CBF4FF088084FF0C80851
:1028200084F8500006EBCC0092B248EA0E4881F0E2
:1028300001014360A4F8662046F83C80734484F8A4
:1028400064101AB9BEF1400F18BF0023E364B4F856
:102850004430314AB3F5A06F06D1344B92F846109C
:102860001970002382F84530314A012313703AE78A
:10287000294CB4F8440042F22102904200F0EC816D
:10288000264A46F83320EFE7244A254B1BF0080F71
:1028900018BF134646F8393025E71F4CFFF738F9C3
:1028A00004EB8A0EDEF81010002900F0AA8104EB78
:1028B0000A004B6890F82400CEF8103001F10803AC
:1028C000CBF80430032807D8DFE800F016111B020C
:1028D0005444042384F824301BF0080F0A880CBFEA
:1028E0008823C82343EA024346F83930FBE65444C0
:1028F000022384F82430EFE75444032384F824307F
:10290000EAE75444052384F82430E5E780200740B3
:10291000902007400080FF1F488BFF1FC800400029
:1029200088004000358AFF1FC020074098200740DC
:1029300094200740E8E4FF1FE00700F1F281210640
:1029400000F12882A20706D5B74AB84913780220B9
:10295000DBB213700870E30602D5B44B10221A7074
:1029600005B0BDE8F08FFDF7DBFEDDE6B04BB04A09
:1029700093F8203046F83900013382F82030B2E66F
:1029800044F82A004FEA8A0393E642F22100824289
:1029900000F0338100F2B181B2F5086F00F02782B8
:1029A000B2F5106F40F038821A6A94F8461084F835
:1029B0004010120600F13483B36A9E4A1B0600F1F0
:1029C0002A83336B9B4A180600F12083B36B994A24
:1029D000190600F11683336C964A1B0600F10C832E
:1029E000B36C944A180600F10283336D914A1906BC
:1029F00000F1F882B36D8F4A1B0600F1EE82336E50
:102A00008C4A180600F12083B36E8A4A190600F139
:102A10001683336F874A1B0600F10C83B36F854A18
:102A2000180600F10283D6F88030824A190600F1B8
:102A30001683D6F888307F4A1B0600F10A83D6F841
:102A400090307C4A180600F1C282D6F89830794A54
:102A5000190600F1B682DFF8D8B1DFF8F4810BF186
:102A6000100301930BF1280303930BF124034FF0A0
:102A7000000A0293DBF8000030B1D0F80490FFF7B1
:102A800047F848460028F8D1019B18680023CBF886
:102A90000030694B002243F82A2030B1D0F804906E
:102AA000FFF736F848460028F8D1019A029B1146F4
:102AB00000220A60039A1B781146002241F8042B79
:102AC000023B4FF00002039128F81A20032B09D88B
:102AD000DFE813F05B0104005B010400029B4FF090
:102AE00001021A70019B04330193029B0AF1010A4F
:102AF0000133BAF1040F0BF1040B0293BAD1DFF8E2
:102B000054814E4A98F80030DFF82491002184F86F
:102B1000201013701B0700F1438298F80130484AD7
:102B2000DFF81091137018074FF000023263B263A0
:102B300000F1048298F80230424ADFF8F8901370EE
:102B400019074FF000023265B26500F1E2813E4A9A
:102B500098F80330137000223267B2671A07DFF863
:102B6000D48000F1BF8194F85000002280F001036E
:102B7000C6F89020C6F898200022964692469146C4
:102B8000114694F864C04CF0020806EBC80B00280C
:102B9000CBF804100CBF8821C82141EA0A0A8CF046
:102BA000010146F838A084F8503084F86410DFF84A
:102BB0008480DFF87CA0002A40F03581B9F1400F15
:102BC0001BD141F0020106EBC106DFF86880C6F8B0
:102BD00004E01604002B40F03B8146F0880648F8DC
:102BE000316084F8500084F864C00EEB0203402A80
:102BF00003D10022E364A4F86620144A0123137071
:102C000032E604EB0A0393F82430032B00F22D8103
:102C100001A252F823F000BFE7260000E7260000DB
:102C2000732D00007F2D0000882007408020074082
:102C3000488BFF1F0080FF1F9C8BFF1FC420074095
:102C4000C8200740CC200740D020074094200740F0
:102C5000E8E4FF1FB46C0000B4F84820D2B9C24ABF
:102C600091F800E0487882F800E0507091F802E0B6
:102C7000C87882F802E0D070106891F804E082F819
:102C800004E0862891F805E0897982F805E09171E1
:102C900000F0B48094F8640094F8501040F0020200
:102CA000002980F0010084F864000CBF8820C8204F
:102CB00046F8320006EBC20281F00101002084F8E0
:102CC00050105060DCE540F202339A4240F09A80A6
:102CD000B4F8482002F07F02042A00F29D80B4F884
:102CE0004630002B40F09880A04992001144704675
:102CF0000A7842F002020A703EE742F221239A4229
:102D000040F08680B4F84830002B40F0E4809848CA
:102D100098490068984A086094F846101170704607
:102D20002AE7964B964C1A6102202070DFF83CE2AD
:102D30009448186098609449944D954F954E9A61C7
:102D40000D208EF80000FF2028704FF09F0E387085
:102D500032702871012601F1680501F1A80087F899
:102D600004E0267081F864205D60D86005B0BDE89D
:102D7000F08F04EB0A02002382F82430B3E404EB62
:102D80000A02012382F82430ADE4029B4FF00002D6
:102D90001A70A7E675497E4B80220D2008701A70C4
:102DA000A2077FF5D8ADCFE584F8381084F8391044
:102DB000022304F13801B4F84A2073489A4280F0A3
:102DC000918190F864C04CF0020806EBC803402AD9
:102DD000914628BF4FF04009596001EB090EC9EB3D
:102DE00002024FEA094A00230120C821D5E6214604
:102DF00094F8403001F8383F7346DCE70F2284F83E
:102E0000412047E7B2F5A06F06D100230120B3E6C9
:102E100042F221339A42F8D0544B0F221A70584A8A
:102E20000123137020E5402A7FF6CBAE41F002016A
:102E300008EBC106C6F804E0ABB1574E8AF8500063
:102E4000403A8AF864C00EF1400348F83160D1E698
:102E500046F0C80684F8500084F864C00EEB020304
:102E600048F83160C3E6474EE8E71BF0080F04EB73
:102E70000A020CBF0223032382F8243033E4B4F89F
:102E8000482002F07F02042AC6D8B4F84630002B4E
:102E9000C2D136499200114470460A7822F00202EB
:102EA0000A7069E63D4B59680029B5D0B4F8460070
:102EB000B4F848E003E00C3359680029ACD01A8814
:102EC0008242F8D15A887245F5D1000A03280CBF16
:102ED0000B781B896FE70B4670464DE6022304F121
:102EE000380168E7FEF7F6FD002800F0E3800830BF
:102EF000244BC8F88400C8F88030FEF7EBFD0028AA
:102F000000F0D0800830244BC6F88C00C6F888301A
:102F100029E6FEF7DFFD002800F0DB800830194BC2
:102F2000C9F86400C9F86030FEF7D4FD002800F04D
:102F3000C9800830184BF066B36608E6FEF7CAFD94
:102F4000002800F0A78008300E4BC9F84400C9F8EB
:102F50004030FEF7BFFD002800F0958008300E4B92
:102F6000F064B364E6E500BFDCE4FF1FC020074067
:102F7000448BFF1FE4E4FF1F368AFF1F0080FF1F02
:102F80009420074088004000488BFF1F882007409E
:102F90008020074098200740C8004000B86C00001F
:102FA000FEF798FD002867D00830554B70623362F9
:102FB000FEF790FD002858D00830524BF062B36203
:102FC000ABE5D2F89C000838FEF7A2FD43E5D2F845
:102FD00094000838FEF79CFD37E5D06D0838FEF701
:102FE00097FD0CE5506D0838FEF792FD02E5D06CB8
:102FF0000838FEF78DFDF8E4506C0838FEF788FDC0
:10300000EEE4D06B0838FEF783FDE4E4506B08383B
:10301000FEF77EFDDAE4D06A0838FEF779FDD0E4E9
:10302000586A0838FEF774FDC6E4D06F0838FEF71A
:103030006FFDF8E4506F0838FEF76AFDEEE4D06EDD
:103040000838FEF765FDE4E4506E0838FEF760FDD1
:10305000DAE4D2F88C000838FEF75AFDEFE4D2F833
:1030600084000838FEF754FDE3E494F82030B062A1
:10307000013384F8203050E599F820303062013374
:1030800089F8203094E794F82030B064013384F854
:1030900020304FE594F82030C9F84000013384F81F
:1030A000203056E794F82030C6F88800013384F8C1
:1030B000203058E594F82030C8F88000013384F8B7
:1030C00020301AE794F82030B066013384F82030BD
:1030D0003DE594F82030C9F86000013384F82030D1
:1030E00022E700BE402B994628BF4FF04009C9EBAC
:1030F00003024FEA094A01EB090E0023012040E5D3
:1031000088004000C80040002DE9F843204CFEF73D
:10311000A7FC002204F1A00023461A605A6008337D
:1031200083424FF00001F8D11A4A1B4F13681B4D20
:103130001B481C4EDFF87880DFF878C0DFF8789005
:10314000DFF878E043F480231360C4F307233B7077
:10315000C4F307432B70240EFF2302F528320470BA
:10316000114D88F8003011488CF80030D43233709B
:10317000012389F8003070268EF800104FF4007497
:10318000102107F8183C2E7004601170BDE8F88318
:103190000080FF1F348004409C200740B02007407F
:1031A000B42007401020074049E400E008E100E0B7
:1031B00080200740882007409420074000210740D6
:1031C000164A136843F480531360154A00231370A2
:1031D00053709370D3701371124A40F2133111601F
:1031E0004FF4517151601F2898BF20200E4AC0F340
:1031F00044311170C0F3471100F01F0051709072FC
:10320000937013742C23D370084B40226FF44B71CE
:103210001A700B444FF400321A6070473480044037
:10322000308CFF1F08C0044000C0064031E400E0BD
:10323000134B9A7802F0EC0100F003020A434107B5
:1032400048BF42F010029A700D4900F00F02042AA4
:1032500002BF8A7942F040028A715A79C30602F0AD
:10326000EF02074B48BF42F010025A719A7981066B
:1032700002F0EF0248BF42F010029A71704700BF9F
:1032800000C00640114B1B68DB0410B500D410BD14
:103290000F4C21790E4B01F0FF0211B100F0E4FB5D
:1032A000F7E70C490C4C4FF4003008600B4940F232
:1032B0000310CA70206060600879C9791A705A706A
:1032C0009B680BB101221A7010BD00BF348004400E
:1032D000308CFF1F84E100E008C0044000C00640BD
:1032E0000A4A38B50446137903F0FF05002BFAD1DA
:1032F00001212046FEF780FD29462046FEF742FDCB
:10330000034B53F83420014BDA6038BD308CFF1F7B
:103310000C6D000010B509B140F080000E4B1A781A
:10332000904217D00D4C2468E40412D502F07F02BD
:10333000082A02BF0A4A00241460002900F07F0115
:103340000CBF44226022082902BF054942F44072A2
:103350000A60187010BD00BF9089FF1F34800440C0
:103360000CC00440704738B50C4B1B6813F48053F5
:103370004FF0000410D02128094D0AD8094B012133
:1033800053F83030AB60FEF737FDAB681C7001209E
:1033900038BDAC60204638BD184638BD3480044086
:1033A000308CFF1F0C6D00000B4B1B6813F4805317
:1033B00010D00E28094B09D1094A40F202311160A0
:1033C0005A7B42F001025A73012070475A7B02F087
:1033D000FE025A73002070473480044000C006404B
:1033E00004C004401E4B1B68DA042DE9F041064678
:1033F00033D51C4DEB680BB101221A70AC78DFF8A5
:103400006480194F0134282C28BF0024EA78154B1A
:10341000A24218D1FEF7E6FF40280FDC3B791B06DD
:10342000F4D598F803300133282B28BF0023EA187D
:10343000DBB2127CD2B2FA71EB70E7E7FF28E5DD70
:1034400000F012FBE2E71A19F6B21674E4B2012298
:103450001A719C70044BAC22DA70BDE8F08100BF99
:1034600034800440308CFF1F00C0064038B504464D
:103470004518AC4204D014F8010BFFF7B3FFF8E78E
:1034800038BD10B5034C237913B100F0EDFAFAE71B
:1034900010BD00BF308CFF1F054B9878DA78C0B2A2
:1034A000D3B298422CBF273303F1FF33181A704769
:1034B000308CFF1F044B18785A78C0B2D3B29842B0
:1034C00038BF4030C01A7047308CFF1F10B50F4C0A
:1034D00023786278D9B2D2B2914214D0531C402BD7
:1034E00028BF0023E21892F83800DAB26270A268AE
:1034F000C0B252B18B4288BF4031CB1A1A2B04DCC8
:103500000023137010BD4FF0FF3010BD308CFF1F33
:10351000084A11785378DBB2994208D00133402B26
:1035200028BF0023134493F83800C0B270474FF00F
:10353000FF307047308CFF1F044B5A78D2B21A709C
:103540009B680BB100221A70704700BF308CFF1FC0
:1035500010B5274B1A7992061FD5264AD9791378C8
:10356000507801333F2BC8BF0023834218BFD018C7
:10357000C9B21EBF80F83810D9B21170916861B11C
:103580001C4AD278D2B2934236BFC2F140029B1A93
:103590009B18272BC4BF01230B701548C278D2B2E9
:1035A000130615D503791C0612D512498C78CB78F1
:1035B000DBB29C4202D16C23C37009E00133282B9B
:1035C00028BF0023CC18DBB2247CE4B2C471CB70DA
:1035D00051060BD5064B1A79520607D5054A00212C
:1035E0001171D26802B111702C22DA7010BD00BFC7
:1035F00000C00640308CFF1F7047036830B523B110
:1036000000249C600124DC6017E0194C236843F41B
:103610000003236000BF174B01241C6003F5807377
:10362000154C036003689D683DB11033A3420360ED
:10363000F8D900230360184630BD04680F4B2260A0
:1036400023441B110E4D0322A2600E4A45F823109D
:103650000179995444335A11920002F1604202F503
:103660006142012003F01F0300FA03F3136030BD31
:103670003C800440007003403F710340008FFCBF5A
:103680009489FF1F44E400E0016830B5A1B10B4B01
:103690000B441B1103F144025511012402F01F02D7
:1036A00004FA02F2064C44F82520064A064C42F879
:1036B000234000238B60036030BD00BF008FFCBF40
:1036C00080E100E09489FF1FF9350000024B0122E0
:1036D0001A60024B1B6818470C7103409489FF1F46
:1036E000024B01221A60024B5B6818471C710340B1
:1036F0009489FF1F024B01221A60024B9B681847F6
:103700002C7103409489FF1F024B01221A60024B67
:10371000DB6818473C7103409489FF1F10B50446CD
:10372000FFF7B2FF204610BD0448054A05490023B3
:10373000036180230375103001F0C8BFA88CFF1F00
:10374000FC87FF1F1D37000010B5044600F082F90A
:10375000627F1ABB237F012B0CD1124B196819B958
:103760006161A1611C6003E062615A68A2615461F9
:103770005C6011E0032B0FD10A4B996819B96161A4
:10378000A1619C6003E06261DA68A2615461DC605F
:10379000054B4FF080521A600123637700F061F906
:1037A00010BD00BFC08CFF1F04ED00E070B50C4DD4
:1037B000002600F04FF9AC6802466CB16369AB605B
:1037C0000BB19E6100E0EB60104600F04AF96677AD
:1037D000A36820469847ECE700F043F970BD00BFAE
:1037E000C08CFF1FFFF7E2BF10B5044600F032F9AE
:1037F000637F0BB3237F012B0BD1A36962690BB1EC
:103800005A6101E00F490A6062696AB90D4A536062
:103810000EE0032B0CD1A36962690BB15A6101E080
:1038200008498A6062690AB1936101E0054AD36080
:1038300000236377012400E01C4600F012F92046C3
:1038400010BD00BFC08CFF1F037F012B0FD1437F32
:1038500053B1836942690BB15A6101E00E490A60B4
:10386000426992B90C4A5360002303777047032BD7
:1038700010D1437F002BF7D0836942690BB15A61A5
:1038800001E005498A6042690AB19361ECE7024AA6
:10389000D360E9E7704700BFC08CFF1F002310B55D
:1038A000C360044600F0D6F8044B1A691C6101237A
:1038B000A260237500F0D5F810BD00BFC08CFF1FBB
:1038C00015494B6930B513B98360C36009E00468DA
:1038D0001A68944207D20025121B8360C560D86025
:1038E0001A60486115E002681C689968121B026042
:1038F00061B10C68A2420B46F5D28160C968C16013
:10390000D860C168A21A88601A6002E08160C36052
:1039100098600223037530BDC08CFF1F10B50446AC
:1039200000F098F8237DDBB2022B0ED1A3682BB1F7
:10393000E2681968DA6022680A441A60E2680AB12B
:10394000936014E00C4A536111E0012B11D10A4A33
:1039500013699C4206D1A368136108E09A689442F7
:1039600003D01346002BF9D101E0A2689A6000232E
:10397000237500F076F810BDC08CFF1F037D70B575
:1039800005460C4616460BB1FFF7C8FF6CB1022C7A
:103990004FF000038CBF023C1C462E612C606B6014
:1039A0002846BDE87040FFF779BF70BD037D70B554
:1039B00004460D4616460BB1FFF7B0FF5DB1022D70
:1039C0008CBFAB1E0023266184E828002046BDE89A
:1039D0007040FFF763BF70BD70B5154D6C69002670
:1039E000BCB1236813B1013B236012E0A26802B1AD
:1039F000D36020696A61036826751B68224600212E
:103A0000984763681BB123602046FFF759FF6C6934
:103A1000E6E700F01FF800232C692B6100F021F885
:103A20002CB1A5682046FFF74BFF2C46F8E770BD88
:103A3000C08CFF1F024A136801331360704700BF38
:103A4000448BFF1F024A136801331360FFF7C4BFA2
:103A5000448BFF1FEFF3108072B6B0FA80F040097C
:103A6000704700B162B670472DE9F8432C4C2378BB
:103A7000002B52D02B4D2A78002A4ED10122D90793
:103A80002A700BD5FCF734FD08B100F0F9F9264B8C
:103A90001B781BB1237823F00103237023789A0746
:103AA00014D5DFF89480DFF89490002698F8002071
:103AB000F3B29A420AD959F823703B6838461B6919
:103AC000984708B13B6998470136EFE700232B7010
:103AD00023785B0721D515490B68F3B1EFF3058314
:103AE000DBB9EFF3108272B6086810B1104C25787C
:103AF0001DB192B962B6BDE8F88301232370436912
:103B00000B600BB19D6101E00A490B6002B962B61E
:103B100000254577836898472570BDE8F88300BF86
:103B2000A489FF1FDC8CFF1FA589FF1FC08CFF1F0E
:103B3000DB8CFF1FC48CFF1FE08CFF1FE48CFF1F7A
:103B4000C029F0B528BFC02172B6134A0023106007
:103B500093809360D360136153619361D3610127B4
:103B60008B4203D100234FF482740BE05C0902EB1B
:103B7000840403F01F0507FA05F6A5683543A56020
:103B80000133EDE78B4204D004FB03025380013381
:103B9000F8E762B6F0BD00BFF08CFF1FF0B572B65B
:103BA0001D4B998803F1080000EB8102064603F1E2
:103BB0002005AA4202D362B60020F0BD144654F894
:103BC000040B10B901312246F3E7B0FA80F54FF04B
:103BD0000044EC4020EA0400106000B901311C8C64
:103BE00099800134A7B21F8462B6921B9210C5EB74
:103BF00042124FF482714A4302F5FB5219681C329B
:103C000001258D545B8C9C4288BF034B01EB020065
:103C100088BF5F84F0BD00BFF08CFF1F10B54288E5
:103C200072B60378012B02D9013B037014E00B4BF1
:103C3000511103EB8104D2434FF0004002F01F0208
:103C400020FA02F2A06810439A88A06091421A8C70
:103C500038BF9980013A1A8462B610BDF08CFF1FFC
:103C600030B5C3687BB1187A90420AD158685C7A43
:103C7000006950F8245025B940F824100878013024
:103C80000870DB68EEE730BD437A8B4288BF02697B
:103C90004FF0000386BF52F8210042F82130184649
:103CA000704738B5437A8B4201D8002038BD03698C
:103CB00053F82140002243F82120002CF5D023782E
:103CC000012B0ED9FFF76AFF054628B14FF4807229
:103CD000211D043001F058FD2378013B2370284654
:103CE00038BD204638BD037C30B5002B2CD143684D
:103CF000427A5B7A9A4227D872B60268D3682BB9A7
:103D0000D06011E01C68A24204D00B46D96800299B
:103D1000F8D108E05D684468A542F6D11C890389A2
:103D20009C42F2D10FE0D8600023C360937A013344
:103D3000937202684168012313728A7A1A448A7264
:103D400042681372037462B630BD037C10B504463A
:103D5000002B34D04368427A5B7A9A422FD872B6ED
:103D60000268D36853B3984204D1C368D36004E0B7
:103D70009C4202D0DB68002BFAD16368627A1B692F
:103D800053F8220040B1FFF749FF72B66368627AC8
:103D90001B69002143F822102268937A013B937239
:103DA00023689A7A02B91A726268937A013B937215
:103DB00063689A7A02B91A720023237462B610BD3E
:103DC000084B93F824205AB9074AD0211170A2F267
:103DD00056324FF080410120116083F82400704773
:103DE00000207047F08CFF1F5EE400E0044B4FF0B2
:103DF00080421A60034B002283F82420704700BFE2
:103E000088E100E0F08CFF1F194A136843F08073CB
:103E10002DE9F0411360174A174D136843F0010371
:103E20001360164A2F68946A16469CB1237A7BB1B8
:103E30002368D5F800801B68204698472A68E388E5
:103E4000C8EB0202120991B29A42A18088BFE180B8
:103E50006469EAE72B68F18DDB1B1B098B429AB280
:103E600088BF064BB28588BFDA85BDE8F08100BF08
:103E7000FCED00E0001000E0041000E0F08CFF1FFB
:103E80007047FFFF82B000230193019B834202D25F
:103E9000019B0133F8E702B0704710B50A2404FB18
:103EA0000313642404FB023202EB42029DF8083043
:103EB000835410449DF80C3043709DF8103083708B
:103EC00010BD04280CD868B103280DD002280DD0ED
:103ED000144B03F5A862012814BF1846104606E0EB
:103EE000104804E0104802E0104800E01048114972
:103EF0000B88104A1B06FBD50F4B4FF480511960FD
:103F00004021C3F8C0100D4BFE2119700C4B4FF42B
:103F1000A8611860996013889BB243F00103138075
:103F2000704700BF1C6E00005C730000DC7D000069
:103F30009C7800001C90004004F00F40208DFF1F73
:103F4000009000400C4A136810B543F440630B4CDA
:103F50001360402222600120FFF794FF08490120EE
:103F60000A60FFF78FFF01202260FFF78BFF054BF0
:103F70000A6000225A6010BD00C0024084F00F4069
:103F800088F00F40208DFF1FF0B51A4D1A4AEB6ADA
:103F9000C3F303130BB30021566891601169D06815
:103FA0008C19013B013656FA83F3CE18C1EB040E8F
:103FB0007045AF6B88BF27700134B442F6D1984288
:103FC0000D4C536014D1084410F8013C012B0CD166
:103FD0002375A3692361A16107E091680F31B1F5F1
:103FE000FA6F01D29160F0BD9360BDE8F040A9E79F
:103FF000F0BD00BF00C00240208DFF1F364B0022E5
:1040000010B51A7003F57723A13340221A600120FE
:10401000FFF738FF314B10221A600120FFF732FF03
:104020002F4B1A602F4B1B78DBB2FE2B53D0012095
:104030002D492E4A13B92E4C206006E0012B086052
:1040400003D12B480224046007E002208342086069
:1040500003D127480424046007E00420032B0860F0
:1040600003D123490820086007E00820042B0860DA
:1040700003D120490120086007E00121052B1160D0
:1040800003D11C490220086007E00221062B1160C1
:1040900003D118490420086007E00421072B1160B0
:1040A00003D114490820086008E008218B42116000
:1040B00004D1104B4FF48031196009E04FF4803186
:1040C000092B116004D10B4B4FF400321A6010BD64
:1040D0004FF40033136010BD1F800040C4F00F4048
:1040E000C8F00F40208DFF1F88F00F4048F00F40B0
:1040F00084F00F4044F00F402DE9F04F0023A34916
:104100008DB0184640F6B832585401339342FBD173
:104110000022154640F6B8309D4B03F11C010C46B9
:104120001444013282424FF0000784F8BA5B9A4689
:10413000F2D1984C984EC4F89816012184F89C1638
:10414000C4F8A076DF601F755F609F603268934897
:10415000DFF894821F6142F480529F6132604FF415
:10416000007202608E4DC8F80020C2600B20FDF77F
:1041700043FE40222A608B4A8B4911604FF0605108
:10418000D16004F2A464CDF81C8038464FF0200EB4
:104190004FF0280CE21902F50051013101F8010C31
:1041A000B7F5AC5F385507F102072BBF81F800C0A7
:1041B00081F800E082F801C082F801E0B7F5005F05
:1041C000E8D17A4C7A4AC4F8C42202F50052C4F805
:1041D000C822FF228AF8002032687649DFF80C9264
:1041E000DFF80C8242F0020232600A68724E42F03E
:1041F00002020A6002200121FDF7FEFD01210E20CE
:10420000FDF7FAFD01210720FDF7F6FD0121082049
:10421000FDF7F2FD01210620FDF7EEFD012114203E
:10422000FDF7EAFD01211520FDF7E6FD0121032040
:10423000FDF7E2FD01210420FDF7DEFD01210F2045
:10424000FDF7DAFD01211620FDF7D6FD012117202B
:10425000FDF7D2FD01210920FDF7CEFD012110203F
:10426000FDF7CAFD01211120FDF7C6FD0121132034
:10427000FDF7C2FD01211220FDF7BEFD0121002046
:10428000FDF7BAFD01210846FDF7B6FD4FF4805257
:10429000C9F80020494A402117604FF0040BC2F8CA
:1042A000C010022301220820102132603360C6F8BA
:1042B00000B0306031602021316041492A602B60BC
:1042C000C5F800B028600A600B60C1F800B0086053
:1042D0004FF4803008604FF40030086039493A48A4
:1042E00000250D60D4F8C4120160384938480A80AE
:1042F00088603848C8600D824D614A834A824D808B
:10430000C8F80070344F8221398034490A60344A39
:10431000CAF81020A2F6BA33CAF8183040F6BA32FA
:10432000204BCAF80C204FF4F8121A60FFF70AFE6F
:1043300040F2CF222B4904F53370FFF75EF958465F
:1043400084F8D4B2FFF7BDFDCDF820900996CDF8E2
:1043500028800B970F4BD4F8C882D3F8A066DFF8FB
:1043600094B00236C3F8A066D3F8983605936B1C58
:1043700004936A1C4FF496735343A3F1030EA3F501
:10438000967306934FF4B55C36E000BF3C8DFF1F7B
:10439000208DFF1F189EFF1F3C80044010B004407A
:1043A00088F00F4000C0024001001F00F8E1FF1F2D
:1043B000BCA4FF1F40800440C8F00F4004F00F4031
:1043C00048F00F4000800040009000400490004002
:1043D00000E0FFFFC0F00F401C90004000E100E053
:1043E000F698FF1F893F000014B0044008F00F400A
:1043F00008900040147F0000069B734578DC059B05
:1044000053F80E30C3F307420BEB8202AEF1030EFA
:10441000D2F80874C3F30722DBB20BEB82020BEB7A
:104420008303D2F80898D3F8082C49EA020147EA36
:10443000010000F0073008EB0C035FFA80FA08F87F
:104440000CA04AF0280A47EA090983F801A002F003
:104450000832C0F3022A83F802A049EA02024AF0B5
:10446000280A83F803A0D208C0F3024A000E02F023
:104470000732987140F02800D871D0B2187240F01D
:104480002800587207F08037C2F30220987239432F
:1044900040F02800D8724909C2F30240120E01F020
:1044A00007319A7342F02802DA73CAB21A7442F0E2
:1044B00028025A74C1F302229A7442F02802DA7474
:1044C000C1F30242090E83F804A018734AF0280AC7
:1044D00040F028001A75997542F0280241F0280131
:1044E00083F805A058735A75D9750CF1180C83E739
:1044F0000B9B1B881A06FBD5A24AD4F8C432C4F819
:10450000C83264201570C4F8C482FFF7BBFC089958
:104510004FF480530B60099940230B609A4B0A9922
:10452000C3F800804FF400530B60984B97491B88E9
:104530009BB243F00103092D0B800BD0049A049B1E
:104540000A25012093FBF5F305FB1325EDB2FFF7D8
:1045500099FCFFE6137D8E4DABB300231375926972
:104560008AB392F8B81BC5F8982601F0030201320D
:1045700001F0200084F8D42200F0FF0250B1184668
:1045800040F6B831D5F89826D05401338B42F9D192
:10459000012212E001F0100101F0FF0389B113467E
:1045A000104640F6B831D5F89826D05401338B42E6
:1045B000F9D1784B0222C3F8D862754B83F89C2658
:1045C00001E085F89C36734B714F93F8D402FFF7E6
:1045D00078FC95F89C36022B08D1D4F8D83242F2F8
:1045E0009812F31A934236D9032314E0032B15D102
:1045F00000210D20FDF700FC4FF47A70FFF742FC1C
:10460000654B07991B684FF400729B060A601CD427
:10461000C4F8D862042387F89C3616E0042B14D122
:10462000D4F8D83248F26062F31A934213D90023C7
:10463000184640F6B831D5F89826D05401338B424D
:10464000F9D1534B002283F89C2695F89C36013B08
:10465000032B3FF673AF33094FF44072B3FBF2F60E
:1046600002FB1636FF2ED5F8987604D8C6F1FF0562
:104670004FF0000B10E0B6F5007F35BFA6F5807B4C
:10468000C6F53F7BC6F5FF76A6F5007539BF013646
:1046900000250BF1030B00264FF0020AEDB25FFA82
:1046A00086F85FFA8BF902231A46514638468DE8A0
:1046B0002003FFF7F2FB51460223072238468DE81C
:1046C0002003FFF7EAFB51460723022238468DE814
:1046D0002003FFF7E2FB072351468DE820031A462B
:1046E00038460AF1010AFFF7D8FBBAF1080FD6D114
:1046F000022602233246194638468DE82003FFF78A
:10470000CCFB32460723022138468DE82003FFF711
:10471000C4FB32460223072138468DE82003FFF709
:10472000BCFB072332468DE8200319463846013684
:10473000FFF7B3FB082EDCD10226022233461146D6
:1047400038468DE82003FFF7A8FB334607220221F5
:1047500038468DE82003FFF7A0FB334602220721ED
:1047600038468DE82003FFF798FB072233468DE893
:104770002003114638460136FFF78FFB082EDCD1A7
:10478000DCE600BF208DFF1F009000401C90004021
:10479000189EFF1FF8E1FF1F90F00F400648074AE0
:1047A00007490023C0F8CC32802380F8D03200F5CE
:1047B000337000F08BBF00BFF8E1FF1FFC87FF1FC5
:1047C0001D37000081F0004102E000BF83F000438C
:1047D00030B54FEA41044FEA430594EA050F08BF9C
:1047E00090EA020F1FBF54EA000C55EA020C7FEA60
:1047F000645C7FEA655C00F0E2804FEA5454D4EBDD
:104800005555B8BF6D420CDD2C4480EA020281EAA6
:10481000030382EA000083EA010180EA020281EADE
:104820000303362D88BF30BD11F0004F4FEA013130
:104830004FF4801C4CEA113102D0404261EB41013F
:1048400013F0004F4FEA03334CEA133302D05242C5
:1048500063EB430394EA050F00F0A780A4F1010481
:10486000D5F1200E0DDB02FA0EFC22FA05F28018BB
:1048700041F1000103FA0EF2801843FA05F35941A1
:104880000EE0A5F120050EF1200E012A03FA0EFC20
:1048900028BF4CF0020C43FA05F3C01851EBE3714A
:1048A00001F0004507D54FF0000EDCF1000C7EEB67
:1048B00000006EEB0101B1F5801F1BD3B1F5001FA5
:1048C0000CD349085FEA30004FEA3C0C04F10104C4
:1048D0004FEA445212F5800F80F09A80BCF1004FED
:1048E00008BF5FEA500C50F1000041EB045141EA6F
:1048F000050130BD5FEA4C0C404141EB010111F470
:10490000801FA4F10104E9D191F0000F04BF01461A
:104910000020B1FA81F308BF2033A3F10B03B3F1F8
:1049200020020CDA0C3208DD02F1140CC2F10C0288
:1049300001FA0CF021FA02F10CE002F11402D8BFE6
:10494000C2F1200C01FA02F120FA0CFCDCBF41EAB2
:104950000C019040E41AA2BF01EB0451294330BD81
:104960006FEA04041F3C1CDA0C340EDC04F114045E
:10497000C4F1200220FA04F001FA02F340EA030035
:1049800021FA04F345EA030130BDC4F10C04C4F17B
:10499000200220FA02F001FA04F340EA030029465B
:1049A00030BD21FA04F0294630BD94F0000F83F4A5
:1049B000801306BF81F480110134013D4EE77FEA88
:1049C000645C18BF7FEA655C29D094EA050F08BFD4
:1049D00090EA020F05D054EA000C04BF19461046B5
:1049E00030BD91EA030F1EBF0021002030BD5FEAF9
:1049F000545C05D14000494128BF41F0004130BD21
:104A000014F580043CBF01F5801130BD01F0004574
:104A100045F0FE4141F470014FF0000030BD7FEAE7
:104A2000645C1ABF194610467FEA655C1CBF0B46E2
:104A3000024650EA013406BF52EA033591EA030FF9
:104A400041F4002130BD00BF90F0000F04BF0021F1
:104A5000704730B54FF4806404F132044FF0000524
:104A60004FF0000150E700BF90F0000F04BF00219D
:104A7000704730B54FF4806404F1320410F0004503
:104A800048BF40424FF000013EE700BF42004FEAFE
:104A9000E2014FEA31014FEA02701FBF12F07F437B
:104AA00093F07F4F81F06051704792F0000F14BF78
:104AB00093F07F4F704730B54FF4607401F00045BC
:104AC00021F0004120E700BF50EA010208BF704713
:104AD00030B54FF000050AE050EA010208BF704708
:104AE00030B511F0004502D5404261EB41014FF471
:104AF000806404F132045FEA915C3FF4DCAE4FF075
:104B000003025FEADC0C18BF03325FEADC0C18BF5B
:104B1000033202EBDC02C2F1200300FA03FC20FAAC
:104B200002F001FA03FE40EA0E0021FA02F11444F9
:104B3000C1E600BF70B54FF0FF0C4CF4E06C1CEA0E
:104B400011541DBF1CEA135594EA0C0F95EA0C0F83
:104B500000F0DEF82C4481EA030621EA4C5123EAF6
:104B60004C5350EA013518BF52EA033541F4801125
:104B700043F4801338D0A0FB02CE4FF00005E1FBD8
:104B800002E506F00042E0FB03E54FF00006E1FB22
:104B900003569CF0000F18BF4EF0010EA4F1FF0465
:104BA000B6F5007F64F5407404D25FEA4E0E6D41A5
:104BB00046EB060642EAC62141EA55514FEAC520B6
:104BC00040EA5E504FEACE2EB4F1FD0C88BFBCF532
:104BD000E06F1ED8BEF1004F08BF5FEA500E50F1E3
:104BE000000041EB045170BD06F0004646EA0101A9
:104BF00040EA020081EA0301B4EB5C04C2BFD4EBDB
:104C00000C0541EA045170BD41F480114FF0000ED3
:104C1000013C00F3AB8014F1360FDEBF002001F041
:104C2000004170BDC4F10004203C35DA0C341BDCBB
:104C300004F11404C4F1200500FA05F320FA04F08D
:104C400001FA05F240EA020001F0004221F00041C1
:104C500010EBD37021FA04F642EB06015EEA430E34
:104C600008BF20EAD37070BDC4F10C04C4F1200564
:104C700000FA04F320FA05F001FA04F240EA020017
:104C800001F0004110EBD37041F100015EEA430EE8
:104C900008BF20EAD37070BDC4F1200500FA05F208
:104CA0004EEA020E20FA04F301FA05F243EA020387
:104CB00021FA04F001F0004121FA04F220EA020096
:104CC00000EBD3705EEA430E08BF20EAD37070BDDC
:104CD00094F0000F0FD101F00046400041EB0101BC
:104CE00011F4801F08BF013CF7D041EA060195F09E
:104CF000000F18BF704703F00046520043EB030358
:104D000013F4801F08BF013DF7D043EA0603704744
:104D100094EA0C0F0CEA135518BF95EA0C0F0CD04F
:104D200050EA410618BF52EA4306D1D181EA030195
:104D300001F000414FF0000070BD50EA410606BF8F
:104D40001046194652EA430619D094EA0C0F02D1D4
:104D500050EA013613D195EA0C0F05D152EA033619
:104D60001CBF104619460AD181EA030101F0004137
:104D700041F0FE4141F470014FF0000070BD41F080
:104D8000FE4141F4780170BD70B54FF0FF0C4CF45A
:104D9000E06C1CEA11541DBF1CEA135594EA0C0F79
:104DA00095EA0C0F00F0A7F8A4EB050481EA030EC6
:104DB00052EA03354FEA013100F088804FEA0333AD
:104DC0004FF0805545EA131343EA12634FEA02227B
:104DD00045EA111545EA10654FEA00260EF000413C
:104DE0009D4208BF964244F1FD0404F5407402D28E
:104DF0005B084FEA3202B61A65EB03055B084FEA1F
:104E000032024FF480104FF4002CB6EB020E75EB1B
:104E1000030E22BFB61A754640EA0C005B084FEA43
:104E20003202B6EB020E75EB030E22BFB61A7546C0
:104E300040EA5C005B084FEA3202B6EB020E75EB0B
:104E4000030E22BFB61A754640EA9C005B084FEA83
:104E50003202B6EB020E75EB030E22BFB61A754690
:104E600040EADC0055EA060E18D04FEA051545EA7F
:104E700016754FEA06164FEAC30343EA52734FEA28
:104E8000C2025FEA1C1CC0D111F4801F0BD141EAA1
:104E900000014FF000004FF0004CB6E711F4801F06
:104EA00004BF01430020B4F1FD0C88BFBCF5E06FE6
:104EB0003FF6AFAEB5EB030C04BFB6EB020C5FEAF6
:104EC000500C50F1000041EB045170BD0EF0004E4B
:104ED0004EEA113114EB5C04C2BFD4EB0C0541EA7D
:104EE000045170BD41F480114FF0000E013C90E67A
:104EF00045EA060E8DE60CEA135594EA0C0F08BF3E
:104F000095EA0C0F3FF43BAF94EA0C0F0AD150EA3C
:104F100001347FF434AF95EA0C0F7FF425AF1046CF
:104F200019462CE795EA0C0F06D152EA03353FF4F7
:104F3000FDAE1046194622E750EA410618BF52EA74
:104F400043067FF4C5AE50EA41047FF40DAF52EA48
:104F500043057FF4EBAE12E74FF0FF3C06E000BFE5
:104F60004FF0010C02E000BF4FF0010C4DF804CDF2
:104F70004FEA410C7FEA6C5C4FEA430C18BF7FEAB2
:104F80006C5C1BD001B050EA410C0CBF52EA430CE0
:104F900091EA030F02BF90EA020F0020704710F160
:104FA000000F91EA030F58BF994208BF90422CBFEF
:104FB000D8176FEAE37040F0010070474FEA410CE8
:104FC0007FEA6C5C02D150EA013C07D14FEA430C06
:104FD0007FEA6C5CD6D152EA033CD3D05DF8040B77
:104FE000704700BF8446104662468C4619466346A9
:104FF00000E000BF01B5FFF7B7FF002848BF10F180
:10500000000F01BD4DF808EDFFF7F4FF0CBF0120C4
:1050100000205DF808FB00BF4DF808EDFFF7EAFF40
:1050200034BF012000205DF808FB00BF4DF808EDFB
:10503000FFF7E0FF94BF012000205DF808FB00BFF0
:105040004DF808EDFFF7CEFF94BF012000205DF87A
:1050500008FB00BF4DF808EDFFF7C4FF34BF012087
:1050600000205DF808FB00BF4FEA410212F5001274
:1050700015D211D56FF47873B3EB625212D94FEA9F
:10508000C12343F0004343EA505311F0004F23FA89
:1050900002F018BF404270474FF00000704750EADE
:1050A000013005D111F0004008BF6FF0004070479B
:1050B0004FF00000704700BF80F0004002E000BFEA
:1050C00081F0004142001FBF5FEA410392EA030FF3
:1050D0007FEA226C7FEA236C6AD04FEA1262D2EB3D
:1050E0001363C1BFD218414048404140B8BF5B4242
:1050F000192B88BF704710F0004F40F4000020F0DB
:105100007F4018BF404211F0004F41F4000121F0F0
:105110007F4118BF494292EA030F3FD0A2F101023A
:1051200041FA03FC10EB0C00C3F1200301FA03F178
:1051300000F0004302D5494260EB4000B0F5000F9B
:1051400013D3B0F1807F06D340084FEA310102F15A
:105150000102FE2A51D2B1F1004F40EBC25008BF0C
:1051600020F0010040EA03007047490040EB0000D6
:1051700010F4000FA2F10102EDD1B0FA80FCACF105
:10518000080CB2EB0C0200FA0CF0AABF00EBC25004
:1051900052421843BCBFD0401843704792F0000FF2
:1051A00081F4000106BF80F400000132013BB5E745
:1051B0004FEA41037FEA226C18BF7FEA236C21D0BB
:1051C00092EA030F04D092F0000F08BF0846704720
:1051D00090EA010F1CBF0020704712F07F4F04D1EE
:1051E000400028BF40F00040704712F100723CBF01
:1051F00000F50000704700F0004343F0FE4040F42B
:10520000000070477FEA226216BF08467FEA2363E8
:105210000146420206BF5FEA412390EA010F40F4D3
:10522000800070474FF0000304E000BF10F000431F
:1052300048BF40425FEA000C08BF704743F0964306
:1052400001464FF000001CE050EA010208BF704721
:105250004FF000030AE000BF50EA010208BF7047A8
:1052600011F0004302D5404261EB41015FEA010CBD
:1052700002BF84460146002043F0B64308BFA3F1B5
:105280008053A3F50003BCFA8CF2083AA3EBC25397
:1052900010DB01FA02FC634400FA02FCC2F12002B6
:1052A000BCF1004F20FA02F243EB020008BF20F0ED
:1052B0000100704702F1200201FA02FCC2F1200253
:1052C00050EA4C0021FA02F243EB020008BF20EA48
:1052D000DC7070474FF0FF0C1CEAD0521EBF1CEA76
:1052E000D15392EA0C0F93EA0C0F6FD01A4480EA64
:1052F000010C400218BF5FEA41211ED04FF000634D
:1053000043EA501043EA5111A0FB01310CF0004078
:10531000B1F5000F3EBF490041EAD3715B0040EA9E
:10532000010062F17F02FD2A1DD8B3F1004F40EB6E
:10533000C25008BF20F00100704790F0000F0CF041
:10534000004C08BF49024CEA502040EA51207F3A05
:10535000C2BFD2F1FF0340EAC250704740F40000E0
:105360004FF00003013A5DDC12F1190FDCBF00F0D1
:1053700000407047C2F10002410021FA02F1C2F17F
:10538000200200FA02FC5FEA310040F1000053EA1B
:105390004C0308BF20EADC70704792F0000F00F069
:1053A000004C02BF400010F4000F013AF9D040EA6F
:1053B0000C0093F0000F01F0004C02BF490011F403
:1053C000000F013BF9D041EA0C018FE70CEAD15301
:1053D00092EA0C0F18BF93EA0C0F0AD030F0004C81
:1053E00018BF31F0004CD8D180EA010000F0004035
:1053F000704790F0000F17BF90F0004F084691F0F3
:10540000000F91F0004F14D092EA0C0F01D142022C
:105410000FD193EA0C0F03D14B0218BF084608D1F5
:1054200080EA010000F0004040F0FE4040F400003F
:10543000704740F0FE4040F4400070474FF0FF0CD2
:105440001CEAD0521EBF1CEAD15392EA0C0F93EA19
:105450000C0F69D0A2EB030280EA010C49024FEA6B
:10546000402037D04FF0805343EA111143EA101324
:105470000CF000408B4238BF5B0042F17D024FF4DC
:10548000000C8B4224BF5B1A40EA0C00B3EB510FB7
:1054900024BFA3EB510340EA5C00B3EB910F24BFA0
:1054A000A3EB910340EA9C00B3EBD10F24BFA3EB25
:1054B000D10340EADC001B0118BF5FEA1C1CE0D1ED
:1054C000FD2A3FF650AF8B4240EBC25008BF20F0A0
:1054D000010070470CF0004C4CEA50207F32C2BFF4
:1054E000D2F1FF0340EAC250704740F400004FF091
:1054F0000003013A37E792F0000F00F0004C02BFC2
:10550000400010F4000F013AF9D040EA0C0093F08B
:10551000000F01F0004C02BF490011F4000F013BE5
:10552000F9D041EA0C0195E70CEAD15392EA0C0F4D
:1055300008D142027FF47DAF93EA0C0F7FF470AF85
:10554000084676E793EA0C0F04D14B023FF44CAFC8
:1055500008466EE730F0004C18BF31F0004CCAD15D
:1055600030F000427FF45CAF31F000437FF43CAF99
:105570005FE700BF4FF0FF3C06E000BF4FF0010CBB
:1055800002E000BF4FF0010C4DF804CD4FEA40029D
:105590004FEA41037FEA226C18BF7FEA236C11D0E7
:1055A00001B052EA530C18BF90EA010F58BFB2EB9A
:1055B000030088BFC81738BF6FEAE17018BF40F01A
:1055C000010070477FEA226C02D15FEA402C05D1CE
:1055D0007FEA236CE4D15FEA412CE1D05DF8040B53
:1055E000704700BF844608466146FFE70FB5FFF7E6
:1055F000C9FF002848BF10F1000F0FBD4DF808ED9E
:10560000FFF7F4FF0CBF012000205DF808FB00BF8E
:105610004DF808EDFFF7EAFF34BF012000205DF8E8
:1056200008FB00BF4DF808EDFFF7E0FF94BF012035
:1056300000205DF808FB00BF4DF808EDFFF7D2FF32
:1056400094BF012000205DF808FB00BF4DF808ED75
:10565000FFF7C8FF34BF012000205DF808FB00BF42
:105660004FEA40024FEA41037FEA226C02D15FEA2F
:10567000402C08D17FEA236C02D15FEA412C02D191
:105680004FF0000070474FF00100704742000ED20B
:10569000B2F1FE4F0BD34FF09E03B3EB126209D46D
:1056A0004FEA002343F0004323FA02F070474FF023
:1056B0000000704712F1610F01D1420202D14FF098
:1056C000FF3070474FF00000704700BF0B460146A7
:1056D000184600F001B8FFFF10B5054C13462CB179
:1056E0000A4601460220AFF3008010BD204610BDDF
:1056F0000000000013B500240194049C009400F005
:105700001BF902B010BD73B515461E460C46FFF7D7
:10571000BDF900962B462246FFF7ECFF02B070BDA4
:10572000014B1868704700BF088AFF1F70B50E4B09
:105730000E4CE41AA41000251E46A54204D056F8CB
:10574000253098470135F8E703F0A0FC084C094BD9
:10575000E41AA41000251E46A54204D056F82530B0
:1057600098470135F8E770BD9890000098900000C8
:10577000A490000098900000024B0146186800F0C9
:1057800065B800BF088AFF1F10B5431E0A44914246
:1057900004D011F8014B03F8014FF8E710BD0244A3
:1057A0000346934202D003F8011BFAE77047FFFF5C
:1057B00038B50546002946D051F8043C0C1F002B93
:1057C000B8BFE41800F01CF91F4A1368114613B95A
:1057D0006360146032E0A3420ED92268A0188342AD
:1057E00004BF18685B68636004BF121822600C6015
:1057F00024E0A24203D813465A68002AF9D1186857
:105800001918A1420BD1216801445818824219602D
:1058100014D1106852685A60014419600EE002D930
:105820000C232B600AE021686018824204BF1068D4
:105830005268626004BF091821605C602846BDE8B8
:10584000384000F0DEB838BDD8E4FF1F70B5CD1C7D
:1058500025F0030508350C2D38BF0C25002D064614
:1058600001DBA94202D90C23336046E000F0C8F8FE
:10587000234B1C681A462146A1B10B685B1B0ED452
:105880000B2B03D90B60CC18CD501EE08C420DBF02
:1058900063684B686360136018BF0C4615E00C46E4
:1058A0004968E9E7174C23681BB9304600F02CF82B
:1058B00020602946304600F027F8431C18D0C41C4D
:1058C00024F00304A0420DD12560304600F099F881
:1058D00004F10B00231D20F00700C31A0ED05A421A
:1058E000E25070BD211A304600F00EF80130EBD1C5
:1058F0000C233360304600F084F8002070BD00BFF8
:10590000D8E4FF1FD4E4FF1F38B5064C002305463A
:1059100008462360FCF735FD431C02D1236803B120
:105920002B6038BDF0E4FF1F034613F8012B002A5B
:10593000FBD1181A013870472DE9F04F89B09A460B
:10594000139C2C4BDDF848B01D68804689461746ED
:1059500084B902F123032A6B9A420ADC07F124047A
:105960002246696B284600F031FB00283ED02C63AC
:1059700068636C6B204B002240464946FFF74CFBA6
:1059800007AE70B100221D4B40464946FFF762FB4F
:1059900038B10496CDF80CB0CDF808A001970223D9
:1059A00006E00496CDF80CB0CDF808A001970323CB
:1059B000009342464B46284600F0BEFBDAF8003022
:1059C0005B4221461B1B079DA8420A4604D210F8E1
:1059D000012B01F8012BF6E73020D1188F4202DDB0
:1059E00002F8010BF9E700231370204609B0BDE867
:1059F000F08F00BF088AFF1F0000F03F0000F0BFDB
:105A00007047704770B5456A04460E463DB9102090
:105A1000FFF7B2FE6062456085600560C560656A3B
:105A2000EB6843B1636ADB6853F8260078B102681B
:105A300043F8262017E021220421204600F0B8FA7E
:105A4000636AE860DB68002BECD1002070BD0121A7
:105A500001FA06F56A1D9200204600F0A9FA002816
:105A6000F3D04660856000230361C36070BD70B5EC
:105A7000446A06460D463CB91020FFF77DFE706271
:105A8000446084600460C4603DB1736A6A68DB6826
:105A900053F82210296043F8225070BD2DE9F041DF
:105AA0000D691F4606460C4601F1140E0023DEF870
:105AB000000081B202FB01710F0C000C02FB0070B0
:105AC00089B2013301EB00419D424FEA10474EF885
:105AD000041BECDCD7B1A3689D4212DB6168304641
